:100000000C9434000C9451000C9451000C94510049
:100010000C9451000C9451000C9451000C9451001C
:100020000C9451000C9451000C9451000C9451000C
:100030000C9451000C94EF010C9451000C9451005D
:100040000C9451000C9451000C9451000C945100EC
:100050000C9451000C9451000C9451000C945100DC
:100060000C9451000C94510011241FBECFEFD8E026
:10007000DEBFCDBF11E0A0E0B1E0EAE7F8E002C0EA
:1000800005900D92A630B107D9F721E0A6E0B1E0C6
:1000900001C01D92A830B207E1F70E940C030C9436
:1000A0003B040C94000061157105E1F58830910561
:1000B00070F44BB121E030E0B90102C0660F771F48
:1000C0008A95E2F7CB01809584238BB908959C0132
:1000D000285031092730310578F448B1C90121E0B1
:1000E00030E0B90102C0660F771F8A95E2F7CB01B5
:1000F0008095842388B908959C012F5031092830B8
:10010000310508F049C045B1C90121E030E0B9012D
:1001100002C0660F771F8A95E2F7CB018095842392
:1001200085B9089561307105B9F58830910568F495
:100130004BB121E030E0B90102C0660F771F8A950C
:10014000E2F7CB01842B8BB908959C01285031092B
:100150002730310570F448B1C90121E030E0B90120
:1001600002C0660F771F8A95E2F7CB01842B88B90E
:1001700008959C012F5031092830310568F445B1AC
:10018000C90121E030E0B90102C0660F771F8A95EE
:10019000E2F7CB01842B85B908956115710509F04B
:1001A00048C08830910590F44AB121E030E0B901AF
:1001B00002C0660F771F8A95E2F7CB01962F9095C4
:1001C00094239AB99BB1892B8BB908959C0128502F
:1001D00031092730310598F447B1C90121E030E0F9
:1001E000B90102C0660F771F8A95E2F7CB01962FFF
:1001F0009095942397B998B1892B88B908959C015B
:100200002F5031092830310508F04DC044B1C901E3
:1002100021E030E0B90102C0660F771F8A95E2F74E
:10022000CB01962F9095942394B995B1892B85B9DC
:10023000089561307105B9F58830910568F44AB1C7
:1002400021E030E0B90102C0660F771F8A95E2F71E
:10025000CB01842B8AB908959C012850310927309D
:10026000310570F447B1C90121E030E0B90102C0A5
:10027000660F771F8A95E2F7CB01842B87B9089523
:100280009C012F5031092830310568F444B1C9016F
:1002900021E030E0B90102C0660F771F8A95E2F7CE
:1002A000CB01842B84B90895AC018830910558F4B2
:1002B00029B130E0C90102C0959587954A95E2F7CA
:1002C0008170992723C00897079768F496B1485022
:1002D0005109892F90E002C0959587954A95E2F7DC
:1002E0008170992713C0CA010F97089768F493B1DA
:1002F0004F505109892F90E002C0959587954A95F6
:10030000E2F78170992702C080E090E0019719F42C
:1003100081E090E0089580E090E008957078772380
:100320002CF4615071097F6F6F5F7F4F9C012550E6
:1003300031092230310568F423EA24BD21E025BDCE
:100340008530910511F468BD08950697C1F467BD25
:1003500008958330910519F08231910581F423EAE3
:100360002093B00021E02093B1008330910519F46F
:100370006093B4000895429711F46093B300089518
:10038000EAE7F0E0808180618083808180648083FF
:1003900080917A0084FFFCCF2091780080917900D1
:1003A00090E0982F8827820F911D08951092C50024
:1003B00083E38093C40088E08093C10086E080934B
:1003C000C2000895FC0107C09091C00095FFFCCFCA
:1003D0008093C600319680818111F6CF08951F92D7
:1003E0000F920FB60F9211248F939F938091060165
:1003F00090910701019690930701809306019F91C8
:100400008F910F900FBE0F901F9018950F931F9311
:10041000CF93DF9361E070E086E090E00E94CD0032
:1004200061E070E085E090E00E94CD0061E070E066
:1004300082E190E00E94CD0061E070E083E090E016
:100440000E94CD0060E070E088E090E00E94CD0066
:1004500060E070E08CE090E00E94CD0060E070E031
:100460008DE090E00E94CD0000E010E013C0E801B4
:10047000CC0FDD1FC050DF4F61E070E088819981B3
:100480000E94CD0061E070E0888199810E94530054
:100490000F5F1F4F0330110554F361E070E080E1FE
:1004A00090E00E94CD0061E070E080E190E00E9469
:1004B000530061E070E085E190E00E94CD0061E0D2
:1004C00070E085E190E00E9453000E94D60178948C
:1004D00081E080936F0010928000EAE7F0E087E807
:1004E000808380EC80937C00808180688083DF91B2
:1004F000CF911F910F91089560E070E082E190E04C
:100500000E948E0160E070E083E090E00E948E0126
:1005100060E070E086E090E00E948E0160E070E0B4
:1005200085E090E00E948E01089560E070E082E135
:1005300090E00E948E0168EC70E083E090E00E9401
:100540008E0168EC70E086E090E00E948E0160E031
:1005500070E085E090E00E948E012FEF85ED96E03F
:10056000215080409040E1F700C000000E947C02D2
:10057000089568EC70E082E190E00E948E0160E0F6
:1005800070E083E090E00E948E0160E070E086E021
:1005900090E00E948E0168EC70E085E090E00E949F
:1005A0008E012FEF85ED96E0215080409040E1F7DD
:1005B00000C000000E947C0208950F931F93CF9308
:1005C000DF938C01C0E0D0E01FC060E070E080E10C
:1005D00090E00E9453002FE788E391E02150804093
:1005E0009040E1F700C0000061E070E080E190E041
:1005F0000E9453002FE788E391E021508040904013
:10060000E1F700C000002196C017D107F4F2DF9196
:10061000CF911F910F910895CF93DF93CDB7DEB7A0
:1006200064970FB6F894DEBF0FBECDBF0E940602DE
:1006300060E070E085E190E00E9453002FE788E3DE
:1006400091E0215080409040E1F700C0000061E05F
:1006500070E085E190E00E9453002FE788E391E08D
:10066000215080409040E1F700C000000E94C0018E
:100670004AE08E010F5F1F4FB8010E940604F80187
:1006800001900020E9F731978AE090E09183808320
:10069000C8010E94E2010E94C0018B3591054CF017
:1006A00060E070E080910201909103010E9453008C
:1006B00008C061E070E080910201909103010E9406
:1006C00053008CE090E00E945401892B49F460E0D3
:1006D00070E080910401909105010E94530008C0D0
:1006E00061E070E080910401909105010E94530047
:1006F0008DE090E00E945401892B49F460E070E0A5
:1007000080910001909101010E94530008C061E0B6
:1007100070E080910001909101010E9453000E94BD
:10072000C0018A359105FCF48CE090E00E945401F0
:10073000892BC9F468EC70E086E090E00E948E019D
:1007400060E070E085E090E00E948E0168EC70E06F
:1007500082E190E00E948E0160E070E083E090E032
:100760000E948E0165CF0E94C0018A359105B4F4C4
:100770008CE090E00E945401019781F481E090E0C8
:100780000E94DD022FEF84E39CE0215080409040E6
:10079000E1F700C000000E9495024ACF0E94C0010C
:1007A0008B359105B4F08DE090E00E945401892BC7
:1007B00081F482E090E00E94DD022FEF84E39CE070
:1007C000215080409040E1F700C000000E94B90233
:1007D0002FCF0E94C0018B3591050CF429CF8DE0FD
:1007E00090E00E945401019709F022CF83E090E04D
:1007F0000E94DD022FEF84E39CE021508040904076
:10080000E1F700C000000E94B90212CFBB274A30B6
:1008100031F4992322F4BDE2909581959F4F0C9479
:100820001204BB27FB015527AA27880F991FAA1F6F
:10083000A41710F0A41B83955051B9F7A05DAA33FB
:1008400008F0A95DA193009779F7B111B1931192C6
:10085000CB010C942B04DC01FC01672F71917723F1
:10086000E1F7329704C07C916D9370836291AE176B
:0A087000BF07C8F30895F894FFCF06
:06087A001100020007005E
:00000001FF
