S00C00006D617A652E737265636B
S11300000C9434000C9451000C9451000C94510045
S11300100C9451000C9451000C9451000C94510018
S11300200C9451000C9451000C9451000C94510008
S11300300C9451000C94C6010C9451000C94510082
S11300400C9451000C9451000C9451000C945100E8
S11300500C9451000C9451000C9451000C945100D8
S11300600C9451000C94510011241FBECFEFD8E022
S1130070DEBFCDBF11E0A0E0B1E0E6EAF8E002C0E7
S113008005900D92A630B107D9F721E0A6E0B1E0C2
S113009001C01D92A830B207E1F70E94DB020C9464
S11300A051040C94000061157105E1F58830910547
S11300B070F44BB121E030E0B90102C0660F771F44
S11300C08A95E2F7CB01809584238BB908959C012E
S11300D0285031092730310578F448B1C90121E0AD
S11300E030E0B90102C0660F771F8A95E2F7CB01B1
S11300F08095842388B908959C012F5031092830B4
S1130100310508F049C045B1C90121E030E0B90129
S113011002C0660F771F8A95E2F7CB01809584238E
S113012085B9089561307105B9F58830910568F491
S11301304BB121E030E0B90102C0660F771F8A9508
S1130140E2F7CB01842B8BB908959C012850310927
S11301502730310570F448B1C90121E030E0B9011C
S113016002C0660F771F8A95E2F7CB01842B88B90A
S113017008959C012F5031092830310568F445B1A8
S1130180C90121E030E0B90102C0660F771F8A95EA
S1130190E2F7CB01842B85B908956115710509F047
S11301A048C08830910590F44AB121E030E0B901AB
S11301B002C0660F771F8A95E2F7CB01962F9095C0
S11301C094239AB99BB1892B8BB908959C0128502B
S11301D031092730310598F447B1C90121E030E0F5
S11301E0B90102C0660F771F8A95E2F7CB01962FFB
S11301F09095942397B998B1892B88B908959C0157
S11302002F5031092830310508F04DC044B1C901DF
S113021021E030E0B90102C0660F771F8A95E2F74A
S1130220CB01962F9095942394B995B1892B85B9D8
S1130230089561307105B9F58830910568F44AB1C3
S113024021E030E0B90102C0660F771F8A95E2F71A
S1130250CB01842B8AB908959C0128503109273099
S1130260310570F447B1C90121E030E0B90102C0A1
S1130270660F771F8A95E2F7CB01842B87B908951F
S11302809C012F5031092830310568F444B1C9016B
S113029021E030E0B90102C0660F771F8A95E2F7CA
S11302A0CB01842B84B90895707877232CF46150A2
S11302B071097F6F6F5F7F4F9C0125503109223098
S11302C0310568F423EA24BD21E025BD853091057C
S11302D011F468BD08950697C1F467BD089583308D
S11302E0910519F08231910581F423EA2093B0003D
S11302F021E02093B1008330910519F46093B40098
S11303000895429711F46093B30008959C01285016
S1130310310926303105F0F4885480937C00EAE7F3
S1130320F0E087E8808380818068808380818061B9
S1130330808380818064808380917A0084FFFCCFF5
S1130340209178008091790090E0982F8827820F7F
S1130350911D089580E090E008951092C50083E314
S11303608093C40088E08093C10086E08093C2003B
S11303700895FC0107C09091C00095FFFCCF8093C5
S1130380C600319680818111F6CF08951F920F9295
S11303900FB60F9211248F939F9380910601909131
S11303A00701019690930701809306019F918F9115
S11303B00F900FBE0F901F9018950F931F93CF931C
S11303C0DF9361E070E086E090E00E94CD0061E0A0
S11303D070E085E090E00E94CD0061E070E082E191
S11303E090E00E94CD0061E070E083E090E00E9424
S11303F0CD0060E070E088E090E00E94CD0060E015
S113040070E08CE090E00E94CD0060E070E08DE050
S113041090E00E94CD0000E010E013C0E801CC0F92
S1130420DD1FC050DF4F61E070E0888199810E9438
S1130430CD0061E070E0888199810E9453000F5FD4
S11304401F4F0330110554F361E070E080E190E048
S11304500E94CD0061E070E080E190E00E945300D2
S113046061E070E085E190E00E94CD0061E070E021
S113047085E190E00E9453000E94AD01789481E0F0
S113048080936F0010928000EAE7F0E087E88083B1
S113049080EC80937C00808180688083DF91CF91A1
S11304A01F910F91089560E070E082E190E00E9456
S11304B0540160E070E083E090E00E94540160E049
S11304C070E086E090E00E94540160E070E085E016
S11304D090E00E945401089560E070E082E190E0B1
S11304E00E94540162ED70E083E090E00E945401A8
S11304F068EC70E086E090E00E94540160E070E0F7
S113050085E090E00E9454012FEF82E597E02150AE
S113051080409040E1F700C000000E94530208951B
S113052062ED70E082E190E00E94540160E070E0CE
S113053083E090E00E94540160E070E086E090E087
S11305400E94540168EC70E085E090E00E94540140
S11305502FE78AE196E0215080409040E1F700C007
S113056000000E9453020895EF92FF920F931F938D
S1130570CF93DF937C01C0E0D0E000E010E009C03D
S1130580C7010E948601843F914014F40F5F1F4FFE
S11305902196CA30D105A4F3083011051CF081E07E
S11305A090E002C080E090E0DF91CF911F910F9125
S11305B0FF90EF900895CF93DF93CDB7DEB76497A4
S11305C00FB6F894DEBF0FBECDBF0E94DD0160E020
S11305D070E085E190E00E9453002FE788E391E00A
S11305E0215080409040E1F700C0000061E070E0DD
S11305F085E190E00E9453002FE788E391E02150C9
S113060080409040E1F700C000008DE090E00E943F
S113061086014AE08E010F5F1F4FB8010E941C043F
S1130620F80101900020E9F731978AE090E0918386
S11306308083C8010E94B9018CE090E00E94B4025A
S1130640019749F460E070E0809104019091050104
S11306500E94530008C061E070E080910401909111
S113066005010E9453008DE090E00E94B4020197BE
S113067049F460E070E080910201909103010E94CE
S1130680530008C061E070E0809102019091030181
S11306900E9453008DE090E00E94B4020197F1F4AF
S11306A08CE090E00E94B4020197C1F460E070E035
S11306B086E090E00E94540168EC70E085E090E0F0
S11306C00E94540162ED70E082E190E00E945401C6
S11306D060E070E083E090E00E9454018DE090E0DF
S11306E00E94B402019769F58CE090E00E94B40284
S11306F0892B39F50E9490020E94900268EC70E008
S113070086E090E00E94540160E070E085E090E0B3
S11307100E94540162ED70E082E190E00E94540175
S113072060E070E083E090E00E9454012FEF81EEDE
S113073094E0215080409040E1F700C000000E9406
S113074053028DE090E00E94B402892BF1F48CE016
S113075090E00E94B4020197C1F468EC70E086E076
S113076090E00E94540160E070E085E090E00E9417
S1130770540162ED70E082E190E00E94540160E077
S113078070E083E090E00E9454018DE090E00E94CC
S1130790B402892B09F01BCF8CE090E00E94B402D4
S11307A0892B09F014CF68EC70E086E090E00E9499
S11307B0540160E070E085E090E00E94540162ED35
S11307C070E082E190E00E94540160E070E083E018
S11307D090E00E9454012FEF80E792E02150804086
S11307E09040E1F700C000000E9453020E946C0296
S11307F068EC70E086E090E00E94540160E070E0F4
S113080085E090E00E94540162ED70E082E190E0A6
S11308100E94540160E070E083E090E00E94540183
S11308202FEF86E191E1215080409040E1F700C034
S113083000000E945302CBCEBB274A3031F49923E7
S113084022F4BDE2909581959F4F0C942804BB2718
S1130850FB015527AA27880F991FAA1FA41710F078
S1130860A41B83955051B9F7A05DAA3308F0A95D84
S1130870A193009779F7B111B1931192CB010C9424
S11308804104DC01FC01672F71917723E1F7329772
S113089004C07C916D9370836291AE17BF07C8F357
S10908A00895F894FFCF57
S10908A61100020007002E
S9030000FC
