S00C00006D617A652E737265636B
S11300000C94B1000C94CE000C94CE000C94CE0051
S11300100C94CE000C94CE000C94CE000C94CE0024
S11300200C94CE000C94CE000C94CE000C94CE0014
S11300300C94CE000C9421020C94CE000C94CE00AF
S11300400C94CE000C94CE000C94CE000C94CE00F4
S11300500C94CE000C94CE000C94CE000C94CE00E4
S11300600C94CE000C94CE0000407A10F35A00A0F9
S1130070724E18090010A5D4E80000E8764817006D
S113008000E40B54020000CA9A3B000000E1F505AD
S1130090000080969800000040420F000000A086F7
S11300A001000000102700000000E8030000000029
S11300B06400000000000A000000000001000000CD
S11300C000002C76D888DC674F0823DFC1DFAE59E7
S11300D0E1B1B796E5E3E453C63AE651997696E87A
S11300E0E6C28426EB898C9B62ED407C6FFCEFBCFE
S11300F09C9F40F2BAA56FA5F490055A2AF75C9329
S11301006B6CF9676DC11BFCE0E40D47FEF520E65E
S1130110B500D0ED902E0300943577050080841E41
S1130120080000204E0A000000C80C333333330F9C
S1130130986E12831141EF8D2114893BE65516CF39
S1130140FEE6DB18D1844B381BF77C1D901DA4BB45
S1130150E424203284725E228100C9F124ECA1E5FA
S11301603D2711241FBECFEFD8E0DEBFCDBF11E085
S1130170A0E0B1E0E0EFFDE002C005900D92AE30EA
S1130180B107D9F721E0AEE0B1E001C01D92A23180
S1130190B207E1F70E94FA020C94F6060C940000F0
S11301A061157105E1F58830910570F44BB121E0DA
S11301B030E0B90102C0660F771F8A95E2F7CB01E0
S11301C0809584238BB908959C01285031092730E8
S11301D0310578F448B1C90121E030E0B90102C029
S11301E0660F771F8A95E2F7CB018095842388B93F
S11301F008959C012F5031092830310508F049C079
S113020045B1C90121E030E0B90102C0660F771F92
S11302108A95E2F7CB018095842385B908956130EE
S11302207105B9F58830910568F44BB121E030E0EF
S1130230B90102C0660F771F8A95E2F7CB01842BC0
S11302408BB908959C01285031092730310570F489
S113025048B1C90121E030E0B90102C0660F771F3F
S11302608A95E2F7CB01842B88B908959C012F501D
S113027031092830310568F445B1C90121E030E085
S1130280B90102C0660F771F8A95E2F7CB01842B70
S113029085B908956115710509F048C08830910544
S11302A090F44AB121E030E0B90102C0660F771F33
S11302B08A95E2F7CB01962F909594239AB99BB136
S11302C0892B8BB908959C012850310927303105B9
S11302D098F447B1C90121E030E0B90102C0660FCA
S11302E0771F8A95E2F7CB01962F9095942397B9BF
S11302F098B1892B88B908959C012F503109283071
S1130300310508F04DC044B1C90121E030E0B90124
S113031002C0660F771F8A95E2F7CB01962F90955E
S1130320942394B995B1892B85B9089561307105E9
S1130330B9F58830910568F44AB121E030E0B9019B
S113034002C0660F771F8A95E2F7CB01842B8AB926
S113035008959C01285031092730310570F447B1C4
S1130360C90121E030E0B90102C0660F771F8A9508
S1130370E2F7CB01842B87B908959C012F503109F2
S11303802830310568F444B1C90121E030E0B901F5
S113039002C0660F771F8A95E2F7CB01842B84B9DC
S11303A00895707877232CF4615071097F6F6F5F23
S11303B07F4F9C01255031092230310568F423EA2E
S11303C024BD21E025BD8530910511F468BD089553
S11303D00697C1F467BD08958330910519F0823101
S11303E0910581F423EA2093B00021E02093B10029
S11303F08330910519F46093B4000895429711F481
S11304006093B3000895E1E6F0E080E88083108211
S11304101092C50083E38093C40088E08093C100F8
S113042086E08093C2000895FC0107C09091C0004B
S113043095FFFCCF8093C600319680818111F6CF61
S113044008951F920F920FB60F9211248F939F93CA
S11304508091100190911101019690931101809364
S113046010019F918F910F900FBE0F901F901895C0
S11304708F929F92AF92BF92EF92FF920F931F932E
S1130480CF93DF93CDB7DEB72A970FB6F894DEBFCC
S11304900FBECDBF61E070E085E190E00E94D00026
S11304A08AE18A95F1F700C060E070E085E190E0B0
S11304B00E94D000109285001092840081E4809301
S11304C0810081E286BB04C01092850010928400F2
S11304D0B59BFACF81E08093810081E286BB1092C4
S11304E011011092100160E070E0CB010FC0609127
S11304F0850070E0762F662780918400680F711D57
S1130500072E000C880B990B0E94E103B59BEFCFDB
S113051029E23CE349EE53E40E9437034B015C01BA
S11305200E94A90370930F0160930E01CE010196FE
S11305307C018C0122E042E0C501B4010E946D04FB
S1130540F70101900020E9F7319783E69DE6918356
S113055080838AE090E093838283C7010E9414021F
S11305602A960FB6F894DEBF0FBECDBFDF91CF91B0
S11305701F910F91FF90EF90BF90AF909F908F903D
S1130580089561E070E081E190E00E944A0161E039
S113059070E085E090E00E944A0161E070E082E151
S11305A090E00E944A0161E070E083E090E00E94E4
S11305B04A0161E070E085E190E00E944A0160E058
S11305C070E08FE090E00E944A0160E070E08CE00F
S11305D090E00E944A0160E070E088E090E00E94B0
S11305E04A010E940302789481E080936F00109284
S11305F080000895CF93DF93CDB7DEB72E970FB663
S1130600F894DEBF0FBECDBF0E94C1028EE0E0E0D1
S1130610F1E0DE01119601900D928A95E1F7CE0189
S113062001960E9414020E94380266E970E081E19A
S113063090E00E94D10160E070E085E090E00E94CB
S1130640D10166E970E082E190E00E94D10160E0AE
S113065070E083E090E00E94D1012FEF80E792E008
S1130660215080409040E1F700C00000D8CF0E94A4
S11306704B030C9433040E942C0458F00E9425046C
S113068040F029F45F3F29F00C941C0451110C94A0
S113069067040C9422040E94440468F39923B1F380
S11306A0552391F3951B550BBB27AA276217730794
S11306B0840738F09F5F5F4F220F331F441FAA1F28
S11306C0A9F335D00E2E3AF0E0E832D091505040E4
S11306D0E695001CCAF72BD0FE2F29D0660F771F92
S11306E0881FBB1F261737074807AB07B0E809F078
S11306F0BB0B802DBF01FF2793585F4F3AF09E3FFD
S1130700510578F00C941C040C9467045F3FE4F3E7
S1130710983ED4F3869577956795B795F7959F5F3F
S1130720C9F7880F911D9695879597F90895E1E08B
S1130730660F771F881FBB1F621773078407BA07EA
S113074020F0621B730B840BBA0BEE1F88F7E09545
S113075008950E94B0036894B1110C94670408953D
S11307600E944C0488F09F5798F0B92F9927B751ED
S1130770B0F0E1F0660F771F881F991F1AF0BA9541
S1130780C9F714C0B13091F00E946604B1E0089535
S11307900C946604672F782F8827B85F39F0B93F27
S11307A0CCF3869577956795B395D9F73EF49095F4
S11307B08095709561957F4F8F4F9F4F0895E89472
S11307C009C097FB3EF490958095709561957F4F95
S11307D08F4F9F4F9923A9F0F92F96E9BB27939543
S11307E0F695879577956795B795F111F8CFFAF453
S11307F0BB0F11F460FF1BC06F5F7F4F8F4F9F4F84
S113080016C0882311F096E911C0772321F09EE8E1
S1130810872F762F05C0662371F096E8862F70E047
S113082060E02AF09A95660F771F881FDAF7880F21
S11308309695879597F9089597F99F6780E870E0F2
S113084060E008959FEF80EC089500240A94161642
S1130850170618060906089500240A9412161306AA
S1130860140605060895092E0394000C11F4882338
S113087052F0BB0F40F4BF2B11F460FF04C06F5F54
S11308807F4F8F4F9F4F089557FD9058440F551F2A
S113089059F05F3F71F04795880F97FB991F61F0FE
S11308A09F3F79F087950895121613061406551F75
S11308B0F2CF4695F1DF08C0161617061806991FE1
S11308C0F1CF86957105610508940895E894BB27D6
S11308D066277727CB0197F90895EF920F931F931B
S11308E0CF93DF93E80147FD02C034E001C034E157
S11308F0042E000C550B57FF03C051954195510927
S1130900E32E022F242FAE010E948D04CE01DF912D
S1130910CF911F910F91EF900895A9E0B0E0E3E922
S1130920F4E00C94C5066A01122FB02E2BE32017B5
S113093020F0FF24F394F00E02C02CE3F22E0F2DCE
S113094027E0AE014F5F5F4F0E94E705BC0149817C
S1130950842F8970813031F0E1FC06C0E0FE06C0CE
S113096090E205C09DE203C09BE201C090E05E2DD1
S1130970507143FF3CC0911102C083E001C084E088
S1130980811718F4212F281B01C020E051110BC03E
S1130990F601822F30E2882319F031938150FBCF86
S11309A0C20ED11C20E0992329F0D6019C93F601B4
S11309B031966F01C6010396E2FE0AC03EE4D601F9
S11309C03C9341E411964C93119712963C9306C0C4
S11309D03EE6F601308341E641833283FC01322F47
S11309E040E2332309F442C041933150FACF42FF2D
S11309F044C0911102C083E001C084E0811718F45F
S1130A00212F281B01C020E051110BC0F601822FB9
S1130A1030E2882319F031938150FBCFC20ED11CF0
S1130A2020E0992329F0D6019C93F60131966F01B9
S1130A30C6010396E2FE0BC039E4D6013C933EE4C2
S1130A4011963C93119736E412963C9307C039E60D
S1130A50F60130833EE6318336E63283FC01322FE1
S1130A6040E2332319F041933150FBCFFC01E20FF4
S1130A70F11D10828EEF9FEFA6C021E030E09111AE
S1130A8002C020E030E0161617061CF4FB01319674
S1130A9002C0E1E0F0E02E0F3F1FBB2021F0EB2D60
S1130AA0F0E0319602C0E0E0F0E02E0F3F1FE12FAE
S1130AB0F0E02E173F071CF4121B212F01C020E089
S1130AC08E2D887159F4F601822F30E2882319F0B3
S1130AD031938150FBCFC20ED11C20E0992329F021
S1130AE0D6019C93F60131966F0151110BC0F601AA
S1130AF0822F90E3882319F091938150FBCFC20E8B
S1130B00D11C20E00F2D060F9A81342F307144FF41
S1130B1003C0913309F40150101624F4093018F07D
S1130B2008E001C001E0AB0177FF02C040E050E003
S1130B30FB01E41BF50BA1E0B0E0AC0FBD1FEA0F15
S1130B40FB1F8EE2A82E4B01801A91080B2D10E09A
S1130B501195019511094F3FBFEF5B0721F4D601B1
S1130B60AC9211966D01641775072CF084169506E6
S1130B7014F4818101C080E3415051093196D601BA
S1130B8011967D014017510724F0D6018C9367011B
S1130B90E2CF6417750739F4963320F4953319F4CA
S1130BA0311101C081E3F6018083F701822F90E2C5
S1130BB0882319F091938150FBCFF701E20FF11DC7
S1130BC0108280E090E02996ECE00C94E106283055
S1130BD008F027E03327DA01990F311D87FD916072
S1130BE000966105710539F432602E5F3D9330E360
S1130BF02A95E1F708959F3F30F08038710561052B
S1130C0009F03C5F3C5F3D93913008F08068911D92
S1130C10DF93CF931F930F93FF92EF92192F987F37
S1130C209695E92F96959695E90FFF27EE53FF4F7A
S1130C3099273327EE24FF24A701E70105900894A0
S1130C40079428F4360FE71EF81E491F511D660F3E
S1130C50771F881F991F0694A1F70590079428F41D
S1130C60E70EF81E491F561FC11D770F881F991FD5
S1130C70661F0694A1F70590079428F4F80E491FFF
S1130C80561FC71FD11D880F991F661F771F069413
S1130C90A1F70590079420F4490F561FC71FD81FCA
S1130CA0990F661F771F881F0694A9F784911095E2
S1130CB0177041F0D695C79557954795F794E794E3
S1130CC01A95C1F7E8E6F0E068941590159135910E
S1130CD06591959105907FE27395E118F10A430BB4
S1130CE0560BC90BD009C0F7E10CF11E431F561F68
S1130CF0C91FD01D7EF4703311F48A95E6CFE894B1
S1130D00015030F0080F0AF40027021708F4202FCE
S1130D102395022F7A3328F079E37D932A95E9F716
S1130D2010C07D932A9589F6069497956795379513
S1130D3017951794E118F10A430B560BC90BD00908
S1130D4098F023957E9173957A3308F070E37C9341
S1130D502013B8F77E9170617D9330F0839571E331
S1130D607D9370E32A95E1F71124EF90FF900F91A2
S1130D701F91CF91DF91992787FD909508952F9228
S1130D803F924F925F926F927F928F929F92AF9217
S1130D90BF92CF92DF92EF92FF920F931F93CF9364
S1130DA0DF93CDB7DEB7CA1BDB0B0FB6F894DEBFFB
S1130DB00FBECDBF09942A88398848885F846E8421
S1130DC07D848C849B84AA84B984C884DF80EE806B
S1130DD0FD800C811B81AA81B981CE0FD11D0FB674
S1130DE0F894DEBF0FBECDBFED010895F894FFCF98
S1110DF048656C6C6F20576F726C64210A00AA
S9030000FC
