S00C00006D617A652E737265636B
S11300000C9434000C9451000C9451000C94510045
S11300100C9451000C9451000C9451000C94510018
S11300200C9451000C9451000C9451000C94510008
S11300300C9451000C9451000C9451000C945100F8
S11300400C9451000C9451000C9451000C945100E8
S11300500C9451000C9451000C9451000C945100D8
S11300600C9451000C94510011241FBECFEFD8E022
S1130070DEBFCDBF11E0A0E0B1E0E2EDF6E002C0EA
S113008005900D92AC30B107D9F721E0ACE0B1E0B6
S113009001C01D92A231B207E1F70E940B030C9438
S11300A067030C94000061157105E1F58830910532
S11300B070F44BB121E030E0B90102C0660F771F44
S11300C08A95E2F7CB01809584238BB908959C012E
S11300D0285031092730310578F448B1C90121E0AD
S11300E030E0B90102C0660F771F8A95E2F7CB01B1
S11300F08095842388B908959C012F5031092830B4
S1130100310508F049C045B1C90121E030E0B90129
S113011002C0660F771F8A95E2F7CB01809584238E
S113012085B9089561307105B9F58830910568F491
S11301304BB121E030E0B90102C0660F771F8A9508
S1130140E2F7CB01842B8BB908959C012850310927
S11301502730310570F448B1C90121E030E0B9011C
S113016002C0660F771F8A95E2F7CB01842B88B90A
S113017008959C012F5031092830310568F445B1A8
S1130180C90121E030E0B90102C0660F771F8A95EA
S1130190E2F7CB01842B85B908956115710509F047
S11301A048C08830910590F44AB121E030E0B901AB
S11301B002C0660F771F8A95E2F7CB01962F9095C0
S11301C094239AB99BB1892B8BB908959C0128502B
S11301D031092730310598F447B1C90121E030E0F5
S11301E0B90102C0660F771F8A95E2F7CB01962FFB
S11301F09095942397B998B1892B88B908959C0157
S11302002F5031092830310508F04DC044B1C901DF
S113021021E030E0B90102C0660F771F8A95E2F74A
S1130220CB01962F9095942394B995B1892B85B9D8
S1130230089561307105B9F58830910568F44AB1C3
S113024021E030E0B90102C0660F771F8A95E2F71A
S1130250CB01842B8AB908959C0128503109273099
S1130260310570F447B1C90121E030E0B90102C0A1
S1130270660F771F8A95E2F7CB01842B87B908951F
S11302809C012F5031092830310568F444B1C9016B
S113029021E030E0B90102C0660F771F8A95E2F7CA
S11302A0CB01842B84B90895707877232CF46150A2
S11302B071097F6F6F5F7F4F9C0125503109223098
S11302C0310568F423EA24BD21E025BD853091057C
S11302D011F468BD08950697C1F467BD089583308D
S11302E0910519F08231910581F423EA2093B0003D
S11302F021E02093B1008330910519F46093B40098
S11303000895429711F46093B30008959C01285016
S1130310310926303105D8F4EAE7F0E097E8908314
S1130320885480937C008081806180838081806494
S1130330808380917A0084FFFCCF209178008091A3
S1130340790090E0982F8827820F911D089580E00E
S113035090E00895E1E6F0E080E880831082109256
S1130360C50083E38093C40088E08093C10086E0E5
S11303708093C2000895FC0107C09091C00095FFCE
S1130380FCCF8093C600319680818111F6CF089509
S1130390CF93DF93CDB7DEB764970FB6F894DEBF83
S11303A00FBECDBF8DE090E00E94860190930D01B9
S11303B080930C014AE0BE016F5F7F4F0E943203BD
S11303C0FC0101900020E9F731972AE030E0318305
S11303D020830E94BB0164960FB6F894DEBF0FBE63
S11303E0CDBFDF91CF910895EF92FF920F931F93AA
S11303F0CF93DF93CDB7DEB764970FB6F894DEBF23
S11304000FBECDBF01E010E022C07801EE0CFF1C4E
S1130410F701EA5FFE4F808191810E948601F70116
S1130420E45FFE4F918380834AE0BE016F5F7F4F9C
S11304300E943203FC0101900020E9F731972AE081
S113044030E0318320830E94BB010F5F1F4F0330D4
S11304501105DCF264960FB6F894DEBF0FBECDBF73
S1130460DF91CF911F910F91FF90EF9008950F931B
S11304701F93CF93DF9300E010E016C0E801CC0F88
S1130480DD1FFE01EA5FFE4F60E070E08081918134
S11304900E94CD00C050DF4F61E070E088819981F7
S11304A00E94CD000F5F1F4F033011053CF361E044
S11304B070E086E090E00E94CD0061E070E085E0AD
S11304C090E00E94CD0061E070E082E190E00E9443
S11304D0CD0061E070E083E090E00E94CD000E94D6
S11304E0AA01DF91CF911F910F910895CF93DF93CC
S11304F0EB01BC0186E090E00E94540160E070E0F2
S113050085E090E00E945401BE0182E190E00E94E7
S1130510540160E070E083E090E00E945401DF91B8
S1130520CF91089580910C0190910D01853691052C
S113053034F48536910534F481E090E0089580E048
S113054090E0089582E090E0089580910E019091EA
S11305500F018536910534F48536910534F481E034
S113056090E0089580E090E0089582E090E008959E
S1130570CF93DF930E949202EC01892B29F40E940D
S1130580A50281309105B9F0209721F40E94A502BB
S1130590892B49F0219751F40E94A502019749F44F
S11305A083E090E008C082E090E005C084E090E041
S11305B002C084E090E0DF91CF9108950F931F93E0
S11305C0CF93DF93C0E0D0E01EC0FE01EE0FFF1F0B
S11305D0E050FF4F60E070E0808191810E94530001
S11305E00E94B8028E010F5F1F4F8017910751F4CC
S11305F0CC0FDD1FC050DF4F61E070E0888199812E
S11306000E945300E801C330D105FCF2DF91CF9181
S11306101F910F9108950E9437020E94C8010E9401
S1130620F4010E94DE020E94B8028130910539F47F
S11306306FEF70E08FEF90E00E947602EECF823091
S1130640910539F46FEF70E085E590E00E94760241
S1130650E4CF039711F765E570E08FEF90E00E9417
S11306607602DBCFBB274A3031F4992322F4BDE272
S1130670909581959F4F0C943E03BB27FB01552712
S1130680AA27880F991FAA1FA41710F0A41B8395EB
S11306905051B9F7A05DAA3308F0A95DA193009762
S11306A079F7B111B1931192CB010C945703DC018A
S11306B0FC01672F71917723E1F7329704C07C9195
S11306C06D9370836291AE17BF07C8F30895F894D1
S10506D0FFCF56
S10F06D20F00020007000D000C000800DF
S9030000FC
