:100000000C9434000C9449000C9449000C94490061
:100010000C9449000C9449000C9449000C9449003C
:100020000C9449000C9449000C9449000C9449002C
:100030000C9449000C9449000C9449000C9449001C
:100040000C9449000C9449000C9449000C9449000C
:100050000C9449000C9449000C9449000C944900FC
:100060000C9449000C94490011241FBECFEFD8E036
:10007000DEBFCDBF11E0A0E0B1E0E4E3FAE002C0F2
:1000800005900D92A230B107D9F70E94A7040C94F5
:1000900018050C94000061157105E1F58830910593
:1000A00070F44BB121E030E0B90102C0660F771F58
:1000B0008A95E2F7CB01809584238BB908959C0142
:1000C000285031092730310578F448B1C90121E0C1
:1000D00030E0B90102C0660F771F8A95E2F7CB01C5
:1000E0008095842388B908959C012F5031092830C8
:1000F000310508F049C045B1C90121E030E0B9013E
:1001000002C0660F771F8A95E2F7CB0180958423A2
:1001100085B9089561307105B9F58830910568F4A5
:100120004BB121E030E0B90102C0660F771F8A951C
:10013000E2F7CB01842B8BB908959C01285031093B
:100140002730310570F448B1C90121E030E0B90130
:1001500002C0660F771F8A95E2F7CB01842B88B91E
:1001600008959C012F5031092830310568F445B1BC
:10017000C90121E030E0B90102C0660F771F8A95FE
:10018000E2F7CB01842B85B908956115710509F05B
:1001900048C08830910590F44AB121E030E0B901BF
:1001A00002C0660F771F8A95E2F7CB01962F9095D4
:1001B00094239AB99BB1892B8BB908959C0128503F
:1001C00031092730310598F447B1C90121E030E009
:1001D000B90102C0660F771F8A95E2F7CB01962F0F
:1001E0009095942397B998B1892B88B908959C016B
:1001F0002F5031092830310508F04DC044B1C901F4
:1002000021E030E0B90102C0660F771F8A95E2F75E
:10021000CB01962F9095942394B995B1892B85B9EC
:10022000089561307105B9F58830910568F44AB1D7
:1002300021E030E0B90102C0660F771F8A95E2F72E
:10024000CB01842B8AB908959C01285031092730AD
:10025000310570F447B1C90121E030E0B90102C0B5
:10026000660F771F8A95E2F7CB01842B87B9089533
:100270009C012F5031092830310568F444B1C9017F
:1002800021E030E0B90102C0660F771F8A95E2F7DE
:10029000CB01842B84B90895AC018830910558F4C2
:1002A00029B130E0C90102C0959587954A95E2F7DA
:1002B0008170992723C00897079768F496B1485032
:1002C0005109892F90E002C0959587954A95E2F7EC
:1002D0008170992713C0CA010F97089768F493B1EA
:1002E0004F505109892F90E002C0959587954A9506
:1002F000E2F78170992702C080E090E0019719F43D
:1003000081E090E0089580E090E00895813429F53F
:1003100060E070E088E090E00E944B0060E070E0F8
:1003200089E090E00E944B0060E070E08AE090E09D
:100330000E944B0060E070E08CE090E00E944B0077
:1003400060E070E08DE090E00E944B0060E070E0C3
:1003500080E190E00E944B000895823459F560E0FE
:1003600070E088E090E00E944B0060E070E089E07F
:1003700090E00E944B0060E070E08AE090E00E9414
:100380004B0060E070E08BE090E00E944B0060E08A
:1003900070E08CE090E00E944B0060E070E08DE047
:1003A00090E00E944B0060E070E080E190E00E94ED
:1003B0004B0008958334C9F460E070E088E090E079
:1003C0000E944B0060E070E08BE090E00E944B00E8
:1003D00060E070E08CE090E00E944B0060E070E034
:1003E0008DE090E00E944B000895843429F560E090
:1003F00070E088E090E00E944B0060E070E089E0EF
:1004000090E00E944B0060E070E08AE090E00E9483
:100410004B0060E070E08BE090E00E944B0060E0F9
:1004200070E08CE090E00E944B0060E070E08DE0B6
:1004300090E00E944B0008958534F9F460E070E08C
:1004400088E090E00E944B0060E070E08BE090E07C
:100450000E944B0060E070E08CE090E00E944B0056
:1004600060E070E08DE090E00E944B0060E070E0A2
:1004700080E190E00E944B0008958634C9F460E06A
:1004800070E088E090E00E944B0060E070E08CE05B
:1004900090E00E944B0060E070E08DE090E00E94F0
:1004A0004B0060E070E080E190E00E944B00089516
:1004B000813369F460E070E089E090E00E944B00D5
:1004C00060E070E08AE090E00E944B000895823383
:1004D000F9F460E070E088E090E00E944B0060E09A
:1004E00070E089E090E00E944B0060E070E08BE0FB
:1004F00090E00E944B0060E070E08CE090E00E9491
:100500004B0060E070E080E190E00E944B000895B5
:100510008333F9F460E070E088E090E00E944B00E3
:1005200060E070E089E090E00E944B0060E070E0E5
:100530008AE090E00E944B0060E070E08BE090E089
:100540000E944B0060E070E080E190E00E944B0070
:1005500008958433C9F460E070E089E090E00E947F
:100560004B0060E070E08AE090E00E944B0060E0A9
:1005700070E08DE090E00E944B0060E070E080E170
:1005800090E00E944B0008958533F9F460E070E03C
:1005900088E090E00E944B0060E070E08AE090E02C
:1005A0000E944B0060E070E08BE090E00E944B0006
:1005B00060E070E08DE090E00E944B0060E070E051
:1005C00080E190E00E944B000895863329F560E0B9
:1005D00070E088E090E00E944B0060E070E08AE00C
:1005E00090E00E944B0060E070E08BE090E00E94A1
:1005F0004B0060E070E08CE090E00E944B0060E017
:1006000070E08DE090E00E944B0060E070E080E1DF
:1006100090E00E944B0008958733C9F460E070E0D9
:1006200088E090E00E944B0060E070E089E090E09C
:100630000E944B0060E070E08AE090E00E944B0076
:1006400060E070E08DE090E00E944B0008958833F8
:1006500059F560E070E088E090E00E944B0060E0B7
:1006600070E089E090E00E944B0060E070E08AE07A
:1006700090E00E944B0060E070E08BE090E00E9410
:100680004B0060E070E08CE090E00E944B0060E086
:1006900070E08DE090E00E944B0060E070E080E14F
:1006A00090E00E944B000895893329F560E070E0E6
:1006B00088E090E00E944B0060E070E089E090E00C
:1006C0000E944B0060E070E08AE090E00E944B00E6
:1006D00060E070E08BE090E00E944B0060E070E032
:1006E0008DE090E00E944B0060E070E080E190E0DF
:1006F0000E944B000895803329F560E070E088E0A7
:1007000090E00E944B0060E070E089E090E00E9481
:100710004B0060E070E08AE090E00E944B0060E0F7
:1007200070E08BE090E00E944B0060E070E08CE0B5
:1007300090E00E944B0060E070E08DE090E00E944D
:100740004B000895803451F561E070E088E090E05E
:100750000E944B0061E070E089E090E00E944B0055
:1007600061E070E08AE090E00E944B0061E070E0A0
:100770008BE090E00E944B0061E070E08CE090E044
:100780000E944B0061E070E08DE090E00E944B0021
:1007900061E070E080E190E00E944B00089580E409
:1007A0000E9486010895809100010E9486010895AB
:1007B000CF92DF92EF92FF920F931F93CF93DF932D
:1007C00000E010E0CC24CA94DC2C2FC0780124E097
:1007D000E20EF11C61E070E0C7010E944B00C0E036
:1007E000D0E019C0CE010E944C01019799F4C801D4
:1007F00001969C01220F331F880F991F880F991FA4
:10080000880F991F820F931F6E012FEFC21AD20A11
:10081000C80ED91E2196C430D10524F360E070E0E3
:10082000C7010E944B000F5F1F4F0430110574F287
:100830008FEFC816D80609F481C00E94CF032BE0C1
:10084000C216D10421F487E38093000177C08CE0C5
:10085000C816D10421F488E3809300016FC02DE015
:10086000C216D10421F489E38093000167C08EE0B1
:10087000C816D10421F483E4809300015FC025E110
:10088000C216D10421F484E38093000157C086E1AD
:10089000C816D10421F485E3809300014FC027E1FD
:1008A000C216D10421F486E38093000147C088E199
:1008B000C816D10421F484E4809300013FC02FE1E5
:1008C000C216D10421F481E38093000137C080E295
:1008D000C816D10421F482E3809300012FC021E2E5
:1008E000C216D10421F483E38093000127C082E281
:1008F000C816D10421F485E4809300011FC029E2C9
:10090000C216D10421F480E38093000117C08AE26B
:10091000C816D10421F481E4809300010FC02BE2BA
:10092000C216D10421F482E48093000107C08CE256
:10093000C816D10419F486E480930001DF91CF91A9
:100940001F910F91FF90EF90DF90CF90089560E09E
:1009500070E080E090E00E94C50060E070E081E01F
:1009600090E00E94C50060E070E082E090E00E94AC
:10097000C50060E070E083E090E00E94C50061E0A7
:1009800070E084E090E00E94C50061E070E085E0E6
:1009900090E00E94C50061E070E086E090E00E9477
:1009A000C50061E070E087E090E00E94C50061E072
:1009B00070E088E090E00E94C50061E070E089E0AE
:1009C00090E00E94C50061E070E08AE090E00E9443
:1009D000C50061E070E08BE090E00E94C50061E03E
:1009E00070E08CE090E00E94C50061E070E08DE076
:1009F00090E00E94C50061E070E080E190E00E941C
:100A0000C500C8E0D0E006C060E070E0CE010E9402
:100A10004B002196CF30D105BCF360E070E080E15F
:100A200090E00E944B000E94D8030E94D303FBCFAA
:040A3000F894FFCF68
:020A3400400080
:00000001FF
