:100000000C9434000C9449000C9449000C94490061
:100010000C9449000C9449000C9449000C9449003C
:100020000C9449000C9449000C9449000C9449002C
:100030000C9449000C9449000C9449000C9449001C
:100040000C9449000C9449000C9449000C9449000C
:100050000C9449000C9449000C9449000C944900FC
:100060000C9449000C94490011241FBECFEFD8E036
:10007000DEBFCDBF11E0A0E0B1E0ECEBFEE002C0DE
:1000800005900D92AE30B107D9F70E94C1040C94CF
:100090005C070C94000061157105E1F5883091054D
:1000A00070F44BB121E030E0B90102C0660F771F58
:1000B0008A95E2F7CB01809584238BB908959C0142
:1000C000285031092730310578F448B1C90121E0C1
:1000D00030E0B90102C0660F771F8A95E2F7CB01C5
:1000E0008095842388B908959C012F5031092830C8
:1000F000310508F049C045B1C90121E030E0B9013E
:1001000002C0660F771F8A95E2F7CB0180958423A2
:1001100085B9089561307105B9F58830910568F4A5
:100120004BB121E030E0B90102C0660F771F8A951C
:10013000E2F7CB01842B8BB908959C01285031093B
:100140002730310570F448B1C90121E030E0B90130
:1001500002C0660F771F8A95E2F7CB01842B88B91E
:1001600008959C012F5031092830310568F445B1BC
:10017000C90121E030E0B90102C0660F771F8A95FE
:10018000E2F7CB01842B85B908956115710509F05B
:1001900048C08830910590F44AB121E030E0B901BF
:1001A00002C0660F771F8A95E2F7CB01962F9095D4
:1001B00094239AB99BB1892B8BB908959C0128503F
:1001C00031092730310598F447B1C90121E030E009
:1001D000B90102C0660F771F8A95E2F7CB01962F0F
:1001E0009095942397B998B1892B88B908959C016B
:1001F0002F5031092830310508F04DC044B1C901F4
:1002000021E030E0B90102C0660F771F8A95E2F75E
:10021000CB01962F9095942394B995B1892B85B9EC
:10022000089561307105B9F58830910568F44AB1D7
:1002300021E030E0B90102C0660F771F8A95E2F72E
:10024000CB01842B8AB908959C01285031092730AD
:10025000310570F447B1C90121E030E0B90102C0B5
:10026000660F771F8A95E2F7CB01842B87B9089533
:100270009C012F5031092830310568F444B1C9017F
:1002800021E030E0B90102C0660F771F8A95E2F7DE
:10029000CB01842B84B90895EAE7F0E08081806186
:1002A000808380818064808380917A0084FFFCCF8A
:1002B000209178008091790090E0982F8827820F14
:1002C000911D0895FC0107C09091C00095FFFCCFDF
:1002D0008093C600319680818111F6CF0895CF9228
:1002E000DF92EF92FF920F931F93CF93DF93CDB7DF
:1002F000DEB765970FB6F894DEBF0FBECDBF00E046
:1003000010E0C12CD12C760112C00E944C01BC011E
:10031000990F880B990B0E9473069B01AC01C701D2
:10032000B6010E945D056B017C010F5F1F4F0A3013
:1003300011055CF320E030E040E251E4C701B60172
:100340000E94C9050E943B06DC01CB014AE0BE01C8
:100350006F5F7F4F0E942707FC0101900020E9F7A3
:1003600031972AE030E0318320830E9462018DE0E2
:10037000E0E0F1E0DE01199601900D928A95E1F737
:10038000CE0109960E94620165960FB6F894DEBF11
:100390000FBECDBFDF91CF911F910F91FF90EF90D6
:1003A000DF90CF900895813369F460E070E08AE0D7
:1003B00090E00E944B0060E070E082E090E00E94DC
:1003C0004B0008958233F9F460E070E089E090E03A
:1003D0000E944B0060E070E08AE090E00E944B00D9
:1003E00060E070E086E090E00E944B0060E070E02A
:1003F00084E090E00E944B0060E070E083E090E0D9
:100400000E944B0008958333F9F460E070E089E0C6
:1004100090E00E944B0060E070E08AE090E00E9473
:100420004B0060E070E086E090E00E944B0060E0EE
:1004300070E082E090E00E944B0060E070E083E0BA
:1004400090E00E944B0008958433C9F460E070E0AE
:1004500085E090E00E944B0060E070E086E090E074
:100460000E944B0060E070E08AE090E00E944B0048
:1004700060E070E082E090E00E944B0008958533D8
:10048000F9F460E070E089E090E00E944B0060E0E9
:1004900070E085E090E00E944B0060E070E086E054
:1004A00090E00E944B0060E070E082E090E00E94EB
:1004B0004B0060E070E083E090E00E944B00089504
:1004C000863329F560E070E089E090E00E944B00FF
:1004D00060E070E085E090E00E944B0060E070E03A
:1004E00086E090E00E944B0060E070E082E090E0E7
:1004F0000E944B0060E070E084E090E00E944B00BE
:1005000060E070E083E090E00E944B000895873344
:10051000C9F460E070E085E090E00E944B0060E08C
:1005200070E089E090E00E944B0060E070E08AE0BB
:1005300090E00E944B0060E070E082E090E00E945A
:100540004B000895883359F560E070E089E090E051
:100550000E944B0060E070E08AE090E00E944B0057
:1005600060E070E082E090E00E944B0060E070E0AC
:1005700083E090E00E944B0060E070E084E090E057
:100580000E944B0060E070E085E090E00E944B002C
:1005900060E070E086E090E00E944B0008958933AF
:1005A00029F560E070E089E090E00E944B0060E097
:1005B00070E08AE090E00E944B0060E070E082E032
:1005C00090E00E944B0060E070E083E090E00E94C9
:1005D0004B0060E070E085E090E00E944B0060E03E
:1005E00070E086E090E00E944B000895803329F58A
:1005F00060E070E089E090E00E944B0060E070E015
:100600008AE090E00E944B0060E070E082E090E0C1
:100610000E944B0060E070E083E090E00E944B009D
:1006200060E070E084E090E00E944B0060E070E0E9
:1006300085E090E00E944B000895803451F561E020
:1006400070E089E090E00E944B0061E070E08AE099
:1006500090E00E944B0061E070E082E090E00E9438
:100660004B0061E070E083E090E00E944B0061E0AD
:1006700070E084E090E00E944B0061E070E085E073
:1006800090E00E944B0061E070E086E090E00E9404
:100690004B000895813369F460E070E080E190E000
:1006A0000E944B0060E070E081E190E00E944B000E
:1006B00008958233F9F460E070E08FE090E00E94EA
:1006C0004B0060E070E080E190E00E944B0060E051
:1006D00070E08DE090E00E944B0060E070E083E10C
:1006E00090E00E944B0060E070E082E190E00E94A8
:1006F0004B0008958333F9F460E070E08FE090E000
:100700000E944B0060E070E080E190E00E944B00AE
:1007100060E070E08DE090E00E944B0060E070E0EF
:1007200081E190E00E944B0060E070E082E190E0A7
:100730000E944B0008958433C9F460E070E084E1C6
:1007400090E00E944B0060E070E08DE090E00E943D
:100750004B0060E070E080E190E00E944B0060E0C0
:1007600070E081E190E00E944B0008958533F9F438
:1007700060E070E08FE090E00E944B0060E070E08D
:1007800084E190E00E944B0060E070E08DE090E03A
:100790000E944B0060E070E081E190E00E944B001D
:1007A00060E070E082E190E00E944B0008958633A3
:1007B00029F560E070E08FE090E00E944B0060E07F
:1007C00070E084E190E00E944B0060E070E08DE01A
:1007D00090E00E944B0060E070E081E190E00E94B8
:1007E0004B0060E070E083E190E00E944B0060E02D
:1007F00070E082E190E00E944B0008958733C9F4D5
:1008000060E070E084E190E00E944B0060E070E006
:100810008FE090E00E944B0060E070E080E190E0AB
:100820000E944B0060E070E081E190E00E944B008C
:100830000895883359F560E070E08FE090E00E9401
:100840004B0060E070E080E190E00E944B0060E0CF
:1008500070E081E190E00E944B0060E070E082E196
:1008600090E00E944B0060E070E083E190E00E9425
:100870004B0060E070E084E190E00E944B0060E09B
:1008800070E08DE090E00E944B000895893329F5D7
:1008900060E070E08FE090E00E944B0060E070E06C
:1008A00080E190E00E944B0060E070E081E190E028
:1008B0000E944B0060E070E082E190E00E944B00FB
:1008C00060E070E084E190E00E944B0060E070E046
:1008D0008DE090E00E944B000895803329F560E0A0
:1008E00070E08FE090E00E944B0060E070E080E1FB
:1008F00090E00E944B0060E070E081E190E00E9497
:100900004B0060E070E082E190E00E944B0060E00C
:1009100070E083E190E00E944B0060E070E084E1D1
:1009200090E00E944B000895803451F561E070E042
:100930008FE090E00E944B0061E070E080E190E089
:100940000E944B0061E070E081E190E00E944B006A
:1009500061E070E082E190E00E944B0061E070E0B5
:1009600083E190E00E944B0061E070E084E190E060
:100970000E944B0061E070E08DE090E00E944B002F
:10098000089561E070E089E090E00E94C50061E0B8
:1009900070E08AE090E00E94C50061E070E082E0D3
:1009A00090E00E94C50061E070E083E090E00E946A
:1009B000C50061E070E084E090E00E94C50061E065
:1009C00070E085E090E00E94C50061E070E086E0A4
:1009D00090E00E94C50061E070E08FE090E00E942E
:1009E000C50061E070E080E190E00E94C50061E038
:1009F00070E081E190E00E94C50061E070E082E17A
:100A000090E00E94C50061E070E083E190E00E9408
:100A1000C50061E070E084E190E00E94C50061E003
:100A200070E08DE090E00E94C50086E287B9E1E6C3
:100A3000F0E080E880831082EAE7F0E087E88083D6
:100A400080EC80937C008081806880831092C50058
:100A500083E38093C400E2ECF0E0808186608083D1
:100A6000E1ECF0E08081886080830E946F010E9449
:100A70004C01EC0180E40E94D30180E40E944A030F
:100A80002AE030E0CE01B9010E94FF06C82FCB0159
:100A9000B9010E94FF06805D0E94D30180E38C0FA4
:100AA0000E944A032FEF84E39CE021508040904055
:100AB000E1F700C00000D9CF5058BB27AA270E94F9
:100AC00074050C94C5060E94B70638F00E94BE0655
:100AD00020F039F49F3F19F426F40C94B4060EF478
:100AE000E095E7FB0C94AE06E92F0E94D60658F37A
:100AF000BA17620773078407950720F079F4A6F503
:100B00000C94F8060EF4E0950B2EBA2FA02D0B01D5
:100B1000B90190010C01CA01A0011124FF27591B42
:100B200099F0593F50F4503E68F11A16F040A22F48
:100B3000232F342F4427585FF3CF469537952795B9
:100B4000A795F0405395C9F77EF41F16BA0B620BB8
:100B5000730B840BBAF09150A1F0FF0FBB1F661FFF
:100B6000771F881FC2F70EC0BA0F621F731F841F42
:100B700048F4879577956795B795F7959E3F08F068
:100B8000B0CF9395880F08F09927EE0F979587952A
:100B900008950E94DD050C94C5060E94BE0658F01B
:100BA0000E94B70640F029F45F3F29F00C94AE068E
:100BB00051110C94F9060C94B4060E94D60668F301
:100BC0009923B1F3552391F3951B550BBB27AA2706
:100BD00062177307840738F09F5F5F4F220F331F40
:100BE000441FAA1FA9F335D00E2E3AF0E0E832D008
:100BF00091505040E695001CCAF72BD0FE2F29D00B
:100C0000660F771F881FBB1F261737074807AB07DC
:100C1000B0E809F0BB0B802DBF01FF2793585F4F51
:100C20003AF09E3F510578F00C94AE060C94F9060C
:100C30005F3FE4F3983ED4F3869577956795B79533
:100C4000F7959F5FC9F7880F911D9695879597F93E
:100C50000895E1E0660F771F881FBB1F62177307B7
:100C60008407BA0720F0621B730B840BBA0BEE1FCC
:100C700088F7E09508950E9442066894B1110C949B
:100C8000F90608950E94DE0688F09F5798F0B92F64
:100C90009927B751B0F0E1F0660F771F881F991FB1
:100CA0001AF0BA95C9F714C0B13091F00E94F80655
:100CB000B1E008950C94F806672F782F8827B85F65
:100CC00039F0B93FCCF3869577956795B395D9F709
:100CD0003EF490958095709561957F4F8F4F9F4F13
:100CE0000895E89409C097FB3EF49095809570951F
:100CF00061957F4F8F4F9F4F9923A9F0F92F96E968
:100D0000BB279395F695879577956795B795F111DC
:100D1000F8CFFAF4BB0F11F460FF1BC06F5F7F4F79
:100D20008F4F9F4F16C0882311F096E911C077238B
:100D300021F09EE8872F762F05C0662371F096E894
:100D4000862F70E060E02AF09A95660F771F881F63
:100D5000DAF7880F9695879597F9089597F99F6721
:100D600080E870E060E008959FEF80EC0895002433
:100D70000A941616170618060906089500240A9400
:100D800012161306140605060895092E0394000C86
:100D900011F4882352F0BB0F40F4BF2B11F460FF15
:100DA00004C06F5F7F4F8F4F9F4F089557FD90583E
:100DB000440F551F59F05F3F71F04795880F97FB1F
:100DC000991F61F09F3F79F08795089512161306D9
:100DD0001406551FF2CF4695F1DF08C01616170608
:100DE0001806991FF1CF869571056105089408953D
:100DF000E894BB2766277727CB0197F9089597FBDF
:100E0000072E16F4009407D077FD09D00E9413072F
:100E100007FC05D03EF4909581959F4F08957095FD
:100E200061957F4F0895AA1BBB1B51E107C0AA1F04
:100E3000BB1FA617B70710F0A61BB70B881F991F7B
:100E40005A95A9F780959095BC01CD010895BB27CF
:100E50004A3031F4992322F4BDE2909581959F4F59
:100E60000C943307BB27FB015527AA27880F991F2E
:100E7000AA1FA41710F0A41B83955051B9F7A05DC9
:100E8000AA3308F0A95DA193009779F7B111B19346
:100E90001192CB010C944C07DC01FC01672F71917E
:100EA0007723E1F7329704C07C916D937083629150
:0C0EB000AE17BF07C8F30895F894FFCFF9
:0E0EBC0048656C6C6F20576F726C640A000002
:00000001FF
