:020000020000FC
:1000000008E00EBF0FEF0DBF00E00AB90FEF0BB90C
:100010000FEF04B919B1113071F0123091F01430B2
:10002000B1F01830D1F01031F1F0103211F110347C
:1000300031F1F0CFEFCF0E94470036E40E94450037
:10004000F9CF0E94470030E40E944500F3CF0E94A0
:10005000470036E00E944500EDCF0E9447003EE099
:100060000E944500E7CF0E94470032E40E9445000D
:10007000E1CF0E94470038E00E944500DBCF0E949C
:10008000470030E00E944500D5CF35B908953FEFD5
:100090000E94450008954CE05CE062E06A95F1F74B
:0A00A0005A95D9F74A95C1F7089563
:00000001FF
