:020000020000FC
:1000000008E00EBF0FEF0DBF00E00AB90FEF0BB90C
:100010000FEF04B910E019B1113071F0123091F006
:100020001430B1F01830D1F01031F1F0103211F17C
:10003000103431F1F0CFEFCF0E94480036E40E9437
:100040004600F9CF0E94480030E40E944600F3CFFA
:100050000E94480036E00E944600EDCF0E94480012
:100060003EE00E944600E7CF0E94480032E40E9432
:100070004600E1CF0E94480038E00E944600DBCFF6
:100080000E94480030E00E944600D5CF35B908955F
:100090003FEF0E94460008954FEF5FEF6AE06A95D8
:0C00A000F1F75A95D9F74A95C1F7089579
:00000001FF
