:100000000C9434000C9451000C9451000C94510049
:100010000C9451000C9451000C9451000C9451001C
:100020000C9451000C9451000C9451000C9451000C
:100030000C9451000C9451000C9451000C945100FC
:100040000C9451000C9451000C9451000C945100EC
:100050000C9451000C9451000C9451000C945100DC
:100060000C9451000C94510011241FBECFEFD8E026
:10007000DEBFCDBF11E0A0E0B1E0E0ECFBE002C0EC
:1000800005900D92AC30B107D9F721E0ACE0B1E0BA
:1000900001C01D92AC31B207E1F70E948E030C94AF
:1000A000DE050C94000061157105E1F588309105BD
:1000B00070F44BB121E030E0B90102C0660F771F48
:1000C0008A95E2F7CB01809584238BB908959C0132
:1000D000285031092730310578F448B1C90121E0B1
:1000E00030E0B90102C0660F771F8A95E2F7CB01B5
:1000F0008095842388B908959C012F5031092830B8
:10010000310508F049C045B1C90121E030E0B9012D
:1001100002C0660F771F8A95E2F7CB018095842392
:1001200085B9089561307105B9F58830910568F495
:100130004BB121E030E0B90102C0660F771F8A950C
:10014000E2F7CB01842B8BB908959C01285031092B
:100150002730310570F448B1C90121E030E0B90120
:1001600002C0660F771F8A95E2F7CB01842B88B90E
:1001700008959C012F5031092830310568F445B1AC
:10018000C90121E030E0B90102C0660F771F8A95EE
:10019000E2F7CB01842B85B908956115710509F04B
:1001A00048C08830910590F44AB121E030E0B901AF
:1001B00002C0660F771F8A95E2F7CB01962F9095C4
:1001C00094239AB99BB1892B8BB908959C0128502F
:1001D00031092730310598F447B1C90121E030E0F9
:1001E000B90102C0660F771F8A95E2F7CB01962FFF
:1001F0009095942397B998B1892B88B908959C015B
:100200002F5031092830310508F04DC044B1C901E3
:1002100021E030E0B90102C0660F771F8A95E2F74E
:10022000CB01962F9095942394B995B1892B85B9DC
:10023000089561307105B9F58830910568F44AB1C7
:1002400021E030E0B90102C0660F771F8A95E2F71E
:10025000CB01842B8AB908959C012850310927309D
:10026000310570F447B1C90121E030E0B90102C0A5
:10027000660F771F8A95E2F7CB01842B87B9089523
:100280009C012F5031092830310568F444B1C9016F
:1002900021E030E0B90102C0660F771F8A95E2F7CE
:1002A000CB01842B84B90895707877232CF46150A6
:1002B00071097F6F6F5F7F4F9C012550310922309C
:1002C000310568F423EA24BD21E025BD8530910580
:1002D00011F468BD08950697C1F467BD0895833091
:1002E000910519F08231910581F423EA2093B00041
:1002F00021E02093B1008330910519F46093B4009C
:100300000895429711F46093B30008959C0128501A
:10031000310926303105D8F4EAE7F0E097E8908318
:10032000885480937C008081806180838081806498
:10033000808380917A0084FFFCCF209178008091A7
:10034000790090E0982F8827820F911D089580E012
:1003500090E00895E1E6F0E080E88083108210925A
:10036000C50083E38093C40088E08093C10086E0E9
:100370008093C2000895FC0107C09091C00095FFD2
:10038000FCCF8093C600319680818111F6CF08950D
:100390000F931F93CF93DF9300E010E010C0E801AC
:1003A000CC0FDD1FFE01EA5FFE4F808191810E942C
:1003B0008601C05FDE4F998388830F5F1F4F033034
:1003C00011056CF3DF91CF911F910F9108954F921A
:1003D0005F926F927F928F929F92AF92BF92EF92B5
:1003E000FF920F931F93CF93DF93CDB7DEB7649740
:1003F0000FB6F894DEBF0FBECDBF00E010E0812C39
:10040000912C5401240135012CC0F801EE0FFF1F7F
:10041000E05FFE4FE080F1800F5F1F4FE09EB00174
:10042000E19E700DF09E700D1124072E000C880BBC
:10043000990B0E94B0049B01AC01C301B2010E9460
:100440009A032B013C01B701FF0C880B990B0E940A
:10045000B0049B01AC01C501B4010E949A034B0199
:100460005C01033011058CF220E030E040E854E4F8
:10047000C301B2010E943C05A50194010E9406043B
:1004800020E030E040E055E40E9499030E947804A7
:10049000DC01CB0190931701809316014AE0BE0165
:1004A0006F5F7F4F0E94A905FC0101900020E9F7D2
:1004B00031972AE030E0318320830E94BB016496AB
:1004C0000FB6F894DEBF0FBECDBFDF91CF911F9165
:1004D0000F91FF90EF90BF90AF909F908F907F9083
:1004E0006F905F904F9008950F931F93CF93DF937A
:1004F00000E010E016C0E801CC0FDD1FFE01EA5F4E
:10050000FE4F60E070E0808191810E94CD00C0507C
:10051000DF4F61E070E0888199810E94CD000F5F1C
:100520001F4F033011053CF361E070E086E090E07E
:100530000E94CD0061E070E085E090E00E94CD0077
:1005400061E070E082E190E00E94CD0061E070E047
:1005500083E090E00E94CD0061E070E085E190E0F2
:100560000E94CD000E94AA01DF91CF911F910F91AF
:1005700008950F931F93CF93DF9300E010E020C006
:10058000E801CC0FDD1FFE01E050FF4F61E070E09D
:10059000808191810E945300C05FDE4F88819981E4
:1005A000893592405CF0F801EE0FFF1FE050FF4FDD
:1005B00060E070E0808191810E9453000F5F1F4FC7
:1005C00003301105ECF2DF91CF911F910F91089547
:1005D000CF93DF93EB01BC0186E090E00E945401D1
:1005E00060E070E085E090E00E945401BE0182E18D
:1005F00090E00E94540160E070E083E090E00E948F
:100600005401DF91CF910895CF92DF92EF92FF9244
:10061000CF93DF93609116017091170170931B01C6
:1006200060931A018091180190911901860F971F0C
:10063000909319018093180180910E0190910F0100
:10064000EB01C81BD90BD0930D01C0930C01709323
:100650000F0160930E01072E000C880B990B0E946E
:10066000B0042AE939E949E95EE30E943C0520E04B
:1006700030E0A9010E949A036B017C01BE01DD0FED
:10068000880B990B0E94B0042DEC3CEC4CEC5DE324
:100690000E943C059B01AC01C701B6010E949A0370
:1006A0000E947804AB014C545F4F4F3F510509F055
:1006B0002CF455232CF440E050E002C04FEF50E002
:1006C00024EB30E0261B370B253B31052CF433237C
:1006D0002CF420E030E002C02FEF30E06D5E7F4F61
:1006E0006732710580F460E070E085E190E00E947F
:1006F000530061E070E085E190E00E9453002FEF2D
:1007000030E04FEF50E0B901CA010E94E802DF91EA
:10071000CF91FF90EF90DF90CF9008950E947402E8
:100720000E94C8010E94B9020E94E7010E940403CE
:10073000F7CF5058BB27AA270E94B1030C9402059B
:100740000E94F40438F00E94FB0420F039F49F3F2B
:1007500019F426F40C94F1040EF4E095E7FB0C94E4
:10076000EB04E92F0E94130558F3BA1762077307C9
:100770008407950720F079F4A6F50C9435050EF45E
:10078000E0950B2EBA2FA02D0B01B90190010C01A1
:10079000CA01A0011124FF27591B99F0593F50F4B9
:1007A000503E68F11A16F040A22F232F342F442711
:1007B000585FF3CF469537952795A795F040539509
:1007C000C9F77EF41F16BA0B620B730B840BBAF0D9
:1007D0009150A1F0FF0FBB1F661F771F881FC2F744
:1007E0000EC0BA0F621F731F841F48F48795779558
:1007F0006795B795F7959E3F08F0B0CF9395880F12
:1008000008F09927EE0F9795879508950E941A048E
:100810000C9402050E94FB0458F00E94F40440F07E
:1008200029F45F3F29F00C94EB0451110C94360528
:100830000C94F1040E94130568F39923B1F3552336
:1008400091F3951B550BBB27AA27621773078407E3
:1008500038F09F5F5F4F220F331F441FAA1FA9F379
:1008600035D00E2E3AF0E0E832D091505040E69567
:10087000001CCAF72BD0FE2F29D0660F771F881FC8
:10088000BB1F261737074807AB07B0E809F0BB0BBB
:10089000802DBF01FF2793585F4F3AF09E3F5105CF
:1008A00078F00C94EB040C9436055F3FE4F3983E2B
:1008B000D4F3869577956795B795F7959F5FC9F7B8
:1008C000880F911D9695879597F90895E1E0660F39
:1008D000771F881FBB1F621773078407BA0720F0B2
:1008E000621B730B840BBA0BEE1F88F7E09508951B
:1008F0000E947F046894B1110C94360508950E94FB
:100900001B0588F09F5798F0B92F9927B751B0F081
:10091000E1F0660F771F881F991F1AF0BA95C9F783
:1009200014C0B13091F00E943505B1E008950C94E7
:100930003505672F782F8827B85F39F0B93FCCF39A
:10094000869577956795B395D9F73EF49095809500
:10095000709561957F4F8F4F9F4F0895E89409C020
:1009600097FB3EF490958095709561957F4F8F4FE2
:100970009F4F9923A9F0F92F96E9BB279395F695F8
:10098000879577956795B795F111F8CFFAF4BB0F76
:1009900011F460FF1BC06F5F7F4F8F4F9F4F16C0DA
:1009A000882311F096E911C0772321F09EE8872F64
:1009B000762F05C0662371F096E8862F70E060E020
:1009C0002AF09A95660F771F881FDAF7880F969599
:1009D000879597F9089597F99F6780E870E060E040
:1009E00008959FEF80EC089500240A9416161706C8
:1009F00018060906089500240A9412161306140610
:100A000005060895092E0394000C11F4882352F072
:100A1000BB0F40F4BF2B11F460FF04C06F5F7F4F2A
:100A20008F4F9F4F089557FD9058440F551F59F011
:100A30005F3F71F04795880F97FB991F61F09F3FCB
:100A400079F087950895121613061406551FF2CFF4
:100A50004695F1DF08C0161617061806991FF1CF44
:100A600086957105610508940895E894BB2766276B
:100A70007727CB0197F908950E944F050C94020542
:100A80000E94F40438F00E94FB0420F0952311F03A
:100A90000C94EB040C94F10411240C9436050E9480
:100AA000130570F3959FC1F3950F50E0551F629F9A
:100AB000F001729FBB27F00DB11D639FAA27F00DB7
:100AC000B11DAA1F649F6627B00DA11D661F829FDE
:100AD0002227B00DA11D621F739FB00DA11D621FC3
:100AE000839FA00D611D221F749F3327A00D611DE0
:100AF000231F849F600D211D822F762F6A2F1124C2
:100B00009F5750409AF0F1F088234AF0EE0FFF1FF4
:100B1000BB1F661F771F881F91505040A9F79E3F4B
:100B2000510580F00C94EB040C9436055F3FE4F320
:100B3000983ED4F3869577956795B795F795E795A1
:100B40009F5FC1F7FE2B880F911D9695879597F9AA
:100B50000895BB274A3031F4992322F4BDE29095E1
:100B600081959F4F0C94B505BB27FB015527AA27FC
:100B7000880F991FAA1FA41710F0A41B839550512A
:100B8000B9F7A05DAA3308F0A95DA193009779F7A2
:100B9000B111B1931192CB010C94CE05DC01FC0193
:100BA000672F71917723E1F7329704C07C916D93A1
:100BB00070836291AE17BF07C8F30895F894FFCF12
:0C0BC00011000200070009000A000B00F1
:00000001FF
