:100000000C9434000C9446000C9446000C9446006A
:100010000C9446000C9446000C9446000C94460048
:100020000C9446000C9446000C9446000C94460038
:100030000C9446000C945A010C9446000C94460013
:100040000C9446000C9446000C9446000C94460018
:100050000C9446000C9446000C9446000C94460008
:100060000C9446000C94460011241FBECFEFD8E03C
:10007000DEBFCDBF21E0A0E0B1E001C01D92A23003
:10008000B207E1F70E94CD010C94DB010C94000053
:1000900061157105E1F58830910570F44BB121E0EF
:1000A00030E0B90102C0660F771F8A95E2F7CB01F5
:1000B000809584238BB908959C01285031092730FD
:1000C000310578F448B1C90121E030E0B90102C03E
:1000D000660F771F8A95E2F7CB018095842388B954
:1000E00008959C012F5031092830310508F049C08E
:1000F00045B1C90121E030E0B90102C0660F771FA8
:100100008A95E2F7CB018095842385B90895613003
:100110007105B9F58830910568F44BB121E030E004
:10012000B90102C0660F771F8A95E2F7CB01842BD5
:100130008BB908959C01285031092730310570F49E
:1001400048B1C90121E030E0B90102C0660F771F54
:100150008A95E2F7CB01842B88B908959C012F5032
:1001600031092830310568F445B1C90121E030E09A
:10017000B90102C0660F771F8A95E2F7CB01842B85
:1001800085B908956115710509F048C08830910559
:1001900090F44AB121E030E0B90102C0660F771F48
:1001A0008A95E2F7CB01962F909594239AB99BB14B
:1001B000892B8BB908959C012850310927303105CE
:1001C00098F447B1C90121E030E0B90102C0660FDF
:1001D000771F8A95E2F7CB01962F9095942397B9D4
:1001E00098B1892B88B908959C012F503109283086
:1001F000310508F04DC044B1C90121E030E0B9013A
:1002000002C0660F771F8A95E2F7CB01962F909573
:10021000942394B995B1892B85B9089561307105FE
:10022000B9F58830910568F44AB121E030E0B901B0
:1002300002C0660F771F8A95E2F7CB01842B8AB93B
:1002400008959C01285031092730310570F447B1D9
:10025000C90121E030E0B90102C0660F771F8A951D
:10026000E2F7CB01842B87B908959C012F50310907
:100270002830310568F444B1C90121E030E0B9010A
:1002800002C0660F771F8A95E2F7CB01842B84B9F1
:100290000895E1E6F0E080E8808310821092C500C6
:1002A00083E38093C40088E08093C10086E080935C
:1002B000C20008951F920F920FB60F9211248F93D0
:1002C0009F9380910001909101010196909301010B
:1002D000809300019F918F910F900FBE0F901F9000
:1002E000189561E070E085E190E00E9448008AE1A5
:1002F0008A95F1F700C060E070E085E190E00E942F
:10030000480061E070E082E090E00E9448001092B6
:1003100085001092840081E48093810081E286BB95
:10032000109201011092000104C0109285001092F9
:100330008400B59BFACF81E08093810081E286BB87
:10034000109201011092000104C0809185008091FB
:100350008400B59BFACF60E070E082E090E00E94FC
:100360004800089561E070E085E190E00E94C200DD
:1003700060E070E08FE090E00E94C20061E070E019
:1003800082E090E00E94C2000E944901789481E0DE
:1003900080936F001092800008950E94B2010E9425
:1003A00071012FEF80E792E0215080409040E1F70B
:0A03B00000C00000F4CFF894FFCF66
:00000001FF
